:020000040800F2
:100000000080002095160008A5150008AD15000811
:10001000B5150008BD150008C51500080000000052
:10002000000000000000000000000000CD150008E6
:10003000DB15000800000000E9150008F7150008AE
:10004000E5160008E5160008E5160008E5160008A4
:10005000E5160008E5160008E5160008E516000894
:10006000E5160008E5160008E5160008E516000884
:10007000E5160008E5160008E5160008E516000874
:10008000E5160008E5160008E51600080000000067
:10009000000000000000000000000000E51600085D
:1000A000E5160008E5160008E5160008E516000844
:1000B000000000000000000000000000E51600083D
:1000C000E5160008E5160008E5160008E516000824
:1000D000E5160008E5160008E51600080000000017
:1000E000E5160008E516000800000000000000000A
:1000F000000000000000000000000000E5160008FD
:100100000000000000000000E516000800000000EC
:100110000000000000000000E516000800000000DC
:10012000E5160008E5160008E5160008E5160008C3
:10013000E5160008000000000000000000000000BC
:1001400000000000000000000000000000000000AF
:10015000E5160008E5160008E5160008E516000893
:10016000000000000000000000000000000000008F
:10017000000000000000000000000000000000007F
:10018000E5160008E5160008000000000000000069
:1001900000000000E516000800000000000000005C
:1001A000000000000000000000000000000000004F
:1001B000000000000000000000000000E51600083C
:0801C000E5160008E516000831
:1001D00010B5054C237833B9044B13B10448AFF381
:1001E00000800123237010BD60000020000000008B
:1001F0008035000808B5034B1BB103490348AFF332
:10020000008008BD00000000640000208035000868
:1002100001F0FF01102A2BDB10F0070F08D010F8B7
:10022000013B013A8B422DD010F0070F42B3F6D1BB
:10023000F0B441EA012141EA014122F007047FF0D4
:1002400000070023F0E80256083C85EA010586EA2B
:10025000010685FA47F5A3FA87F586FA47F6A5FA67
:1002600087F68EB9EED1F0BC01F0FF0102F0070273
:1002700032B110F8013B013A83EA010313B1F8D11E
:100280000020704701387047002D06BF35460338FF
:10029000073815F0010F07D1013015F4807F02BF38
:1002A000013015F4C03F0130F0BC0138704700BF89
:1002B00053B94AB9002908BF00281CBF4FF0FF31CD
:1002C0004FF0FF3000F088B9ADF1080C6DE904CEB5
:1002D00000F006F8DDF804E0DDE9022304B0704721
:1002E0002DE9F047089D0F4604468C46002B48D167
:1002F0008A42164661D9B2FA82F34BB1C3F12002A9
:1003000001FA03FC20FA02F29E4042EA0C0C9C40E7
:100310004FEA164EB7B2BCFBFEF1220C0EFB11CC1D
:1003200042EA0C4201FB07F0904209D9B21801F1F0
:10033000FF3C80F0EE80904240F2EB800239324484
:10034000121AA4B2B2FBFEF00EFB102244EA0244E1
:1003500000FB07F7A74209D9341900F1FF3280F0FA
:10036000DA80A74240F2D7803444023840EA0140A4
:10037000E41B00211DB1DC400023C5E90043BDE8BA
:10038000F0878B4206D90DB1C5E90001002108466E
:10039000BDE8F087B3FA83F1002948D1BB4202D30C
:1003A000824200F20781841A67EB0302012094461F
:1003B000002DE4D0C5E9004CE1E7002A00F092806E
:1003C000B2FA82F3002B40F0A8808A1A4FEA164E48
:1003D0001FFA86FC0121200CB2FBFEF70EFB172250
:1003E00040EA02420CFB07F0904207D9B21807F12D
:1003F000FF3802D2904200F2E2804746121AA4B2BD
:10040000B2FBFEF00EFB102244EA02440CFB00FC9F
:10041000A44507D9341900F1FF3202D2A44500F2F5
:10042000CB801046A4EB0C0440EA0740A2E7C1F1E0
:1004300020068B4022FA06FC4CEA030C07FA01F472
:1004400020FA06F3F7404FEA1C49234300FA01F86B
:100450001FFA8CFEB7FBF9F01C0C09FB107744EA7D
:10046000074400FB0EF7A74202FA01F20AD91CEB7F
:10047000040400F1FF3A80F09B80A74240F298808C
:1004800002386444E41B9FB2B4FBF9F309FB134444
:1004900047EA044403FB0EFEA64509D91CEB0404FD
:1004A00003F1FF3780F08280A6457FD9023B644488
:1004B00043EA0040A4EB0E04A0FB02E7BC427346F3
:1004C000B94663D360D05DB1B8EB030264EB0904B5
:1004D00004FA06F622FA01F31E43CC40C5E9006493
:1004E00000214CE76208480842EAC1710B0C43EA5C
:1004F00000438AB242EA0342B3FBF6F1E407B44692
:100500003746B6461F23B0FBF6F0D21B41EA004146
:1005100061E7614614E7104628E7C3F1200120FA9D
:1005200001F29E4027FA01F19F403A434FEA164EEE
:100530001FFA86FCB1FBFEF70EFB1710110C41EA07
:10054000004107FB0CF8884504FA03F43AD9711806
:1005500007F1FF3001D288451FD8A1EB0801B1FB9C
:10056000FEF808FB0CF70EFB181192B242EA0142AA
:10057000BA422FD2B21808F1FF31C6D2BA42C4D261
:10058000A8F102013244C0E7F0459CD2BEEB020361
:1005900067EB0C070138B94695E7A6EB080841441C
:1005A000B81EB1FBFEF808FB0CF7DCE73B467FE723
:1005B000504667E70846FBE63444023832E7023F1C
:1005C00032441BE7A1EB08013846B1FBFEF808FBFB
:1005D0000CF7C8E7414698E7704700BF80B582B086
:1005E00000AF7860786801F0F1F800BF0837BD46C9
:1005F00080BD000080B500AF0B4B1B680B4A118813
:100600000122184601F078FB0120FFF7E7FF064BB7
:100610001B68064A11880022184601F06DFB012074
:10062000FFF7DCFF00BF80BD7C00002084000020BD
:1006300080B582B000AF0346FB711C4B18681C4BA1
:100640001988FB7903F00103DBB21A4601F054FB71
:10065000164B1868174B1988FB795B08DBB203F05F
:100660000103DBB21A4601F047FB104B1868124B2E
:100670001988FB799B08DBB203F00103DBB21A4651
:1006800001F03AFB094B18680C4B1988FB79DB0821
:10069000DBB203F00103DBB21A4601F02DFBFFF7DA
:1006A000A9FF00BF0837BD4680BD00BF7C00002009
:1006B00086000020880000208A0000208C00002096
:1006C00080B582B000AF03460A46FB711346BB718A
:1006D000144B1868144B1988BB79002B14BF0123E5
:1006E0000023DBB21A4601F007FB0E4B1B680F4AD2
:1006F00011880022184601F0FFFAFB791B09DBB2D2
:100700001846FFF795FFFB7903F00F03DBB218469D
:10071000FFF78EFF0220FFF761FF00BF0837BD46DD
:1007200080BD00BF7C0000208000002082000020EF
:1007300080B586B000AFF860084611461A460346F9
:100740007B810B463B811346FB80294AFB68136083
:10075000284A7B891380284A3B891380274AFB88D3
:100760001380274A3B8C1380264ABB8C1380264A71
:100770003B8D1380254ABB8D13803220FFF72EFF5F
:100780001B4B18681B4B1A881B4B1B8813439BB2CF
:100790000022194601F0B0FA00237B6108E0032033
:1007A000FFF746FF0520FFF719FF7B6901337B61E7
:1007B0007B69022BF3DD0220FFF73AFF0520FFF7EC
:1007C0000DFF00212820FFF77BFF00210C20FFF701
:1007D00077FF00210120FFF773FF0220FFF7FEFEE5
:1007E00000210620FFF76CFF00BF1837BD4680BD13
:1007F0007C00002080000020820000208400002077
:1008000086000020880000208A0000208C00002044
:1008100080B500AF00210120FFF752FF0220FFF753
:10082000DDFE00BF80BD80B584B000AF03460A4640
:10083000FB711346BB71FB79002B03D1BB79803B65
:10084000DBB202E0BB79403BDBB2FB73FB7B0021F8
:100850001846FFF735FF00BF1037BD4680BD80B595
:1008600082B000AF0346FB71FB7901211846FFF708
:1008700027FF00BF0837BD4680BD80B582B000AFFE
:10088000786006E07B685A1C7A601B781846FFF790
:10089000E6FF7B681B78002BF4D100BF00BF083750
:1008A000BD4680BD0FB480B58AB000AF07F13403F8
:1008B0003B60381D3B683A6B212102F0CDF93B1DAE
:1008C0001846FFF7DAFF00BF2837BD46BDE8804075
:1008D00004B0704780B582B000AF7860786800F0EF
:1008E00075FF00BF0837BD4680BD000080B500AF72
:1008F00001222021064801F0FFF93220FFF7EAFF2C
:1009000000222021024801F0F7F900BF80BD00BF9E
:100910000004024080B500AF01222021064801F00A
:10092000EBF9C820FFF7D6FF00222021024801F092
:10093000E3F900BF80BD00BF0004024080B582B073
:1009400000AF0346FB71FB79002B14BF012300238A
:10095000DBB21A462021034801F0CEF900BF083768
:10096000BD4680BD0000024080B582B000AF0346A6
:100970000A46FB711346BB7100224FF4FE41B94891
:1009800001F0BAF9FB79092B00F24E8101A252F86D
:1009900023F000BFBD090008130A00082D0A000853
:1009A0006B0A0008A90A0008DB0A0008190B0008F6
:1009B000630B0008890B0008DF0B000801224FF4CD
:1009C0008071A84801F098F901224FF40071A54800
:1009D00001F092F901224FF48061A24801F08CF9F4
:1009E00001224FF400619F4801F086F901224FF483
:1009F00080519C4801F080F901224FF40051994840
:100A000001F07AF900224FF48041964801F074F920
:100A10000BE101224FF40071924801F06DF90122BF
:100A20004FF480618F4801F067F9FEE001224FF436
:100A300080718C4801F060F901224FF400718948FF
:100A400001F05AF901224FF40061864801F054F98F
:100A500001224FF48051834801F04EF901224FF4F6
:100A60008041804801F048F9DFE001224FF48071B5
:100A70007C4801F041F901224FF40071794801F0FE
:100A80003BF901224FF48061764801F035F90122EB
:100A90004FF40061734801F02FF901224FF48041B7
:100AA000704801F029F9C0E001224FF400716D484F
:100AB00001F022F901224FF480616A4801F01CF92B
:100AC00001224FF40051674801F016F901224FF45A
:100AD0008041644801F010F9A7E001224FF48071D1
:100AE000604801F009F901224FF480615D4801F08E
:100AF00003F901224FF400615A4801F0FDF8012288
:100B00004FF40051574801F0F7F801224FF48041AB
:100B1000544801F0F1F888E001224FF48071514807
:100B200001F0EAF801224FF480614E4801F0E4F848
:100B300001224FF400614B4801F0DEF801224FF42E
:100B40008051484801F0D8F801224FF4005145483F
:100B500001F0D2F801224FF48041424801F0CCF874
:100B600063E001224FF480713E4801F0C5F8012294
:100B70004FF400713B4801F0BFF801224FF480614F
:100B8000384801F0B9F850E001224FF4807135483F
:100B900001F0B2F801224FF40071324801F0ACF8D4
:100BA00001224FF480612F4801F0A6F801224FF492
:100BB00000612C4801F0A0F801224FF4805129482F
:100BC00001F09AF801224FF40051264801F094F800
:100BD00001224FF48041234801F08EF825E00122E4
:100BE0004FF480711F4801F087F801224FF4007123
:100BF0001C4801F081F801224FF48061194801F08E
:100C00007BF801224FF40061164801F075F80122CB
:100C10004FF40051134801F06FF801224FF4804166
:100C2000104801F069F800E000BFBB79002B0AD141
:100C3000012208210C4801F05FF8002210210A4827
:100C400001F05AF809E000220821074801F054F8A1
:100C500001221021044801F04FF800BF0837BD46BB
:100C600080BD00BF000002400004024080B582B099
:100C700000AF0346FB7100224FF4FE410F4801F024
:100C80003BF8FB79002B0AD1012208210C4801F026
:100C900033F8002210210A4801F02EF809E0002262
:100CA0000821074801F028F801221021044801F02A
:100CB00023F800BF0837BD4680BD00BF00000240DA
:100CC0000004024080B582B000AF1F4BDB78012BDF
:100CD0002AD11D4B1B781D4AA2FB0323DB08FB71A5
:100CE000194B1A78194BA3FB0213D9080B469B002A
:100CF0000B445B00D31ABB71FB79002B03D100209E
:100D0000FFF7B4FF04E0FB7900211846FFF72CFE43
:100D1000052000F05BFDBB7901211846FFF724FE9A
:100D2000052000F053FD0AE000224FF4FE41084880
:100D300000F0E2FF00221821064800F0DDFF00BFAE
:100D40000837BD4680BD00BF00000020CDCCCCCC14
:100D5000000002400004024080B500AFFFF758FDDC
:100D600000210020FFF75FFD0548FFF79BFD0021F4
:100D70000120FFF758FD0348FFF794FD00BF80BD39
:100D800098350008A435000880B500AFFFF740FD96
:100D900000210020FFF747FD0848FFF783FD0021F1
:100DA0000120FFF740FD064B1B781946044B5B788A
:100DB0001A460448FFF776FD00BF80BDB435000831
:100DC00000000020C035000880B500AFFFF720FD0F
:100DD00000210020FFF727FD0548FFF763FD0021F4
:100DE0000120FFF720FD0348FFF75CFD00BF80BD39
:100DF000D4350008E435000880B500AFFFF708FDE2
:100E000000210020FFF70FFD084B1B78194608480A
:100E1000FFF748FD00210120FFF705FD034B5B783C
:100E200019460448FFF73EFD00BF80BD00000020CA
:100E3000F03500080036000880B500AFFFF7E8FC89
:100E400000210020FFF7EFFC0A4B5B7819460A48A7
:100E5000FFF728FD00210120FFF7E5FC054B9B78FB
:100E6000002B01D0054B00E0054B1846FFF71AFD9B
:100E700000BF80BD000000200C3600081C360008B2
:100E80002436000880B500AFFFF7C2FC0021002027
:100E9000FFF7C9FC0A4B9B78002B01D0094B00E0FF
:100EA000094B1846FFF7FEFC00210120FFF7BBFCB1
:100EB000034B5B7819460548FFF7F4FC00BF80BD83
:100EC0000000002030360008403600080C360008CC
:100ED00080B500AFFFF79CFC00210020FFF7A3FCCA
:100EE0000548FFF7DFFC00210120FFF79CFC0348C9
:100EF000FFF7D8FC00BF80BD543600085C36000800
:100F000080B500AFFFF784FC00210020FFF78BFCC9
:100F10000C4B1B7819460B4B5B781A460A48FFF7B7
:100F2000C1FC00210120FFF77EFC064B9B78002BC3
:100F300001D0064B00E0064B1846FFF7B3FC00BF9C
:100F400080BD00BF00000020C035000870360008DA
:100F50008036000880B500AFFFF7DCFC124BDB7871
:100F6000002B0ED1104B0122DA700120FFF7E6FCB6
:100F7000FFF70AFF4FF47A70FFF7ACFCFFF7C0FFF2
:100F80000DE0094B0022DA700020FFF7D7FCFFF7D5
:100F90001BFF4FF47A70FFF79DFCFFF7DDFEFFF7B4
:100FA00091FE00BF80BD00BF0000002080B500AFF3
:100FB000134BDB78002B0AD1FFF78AFFFFF796FC73
:100FC0004FF47A70FFF786FCFFF7C6FE17E0FFF7D5
:100FD0008DFC0B4B1B78622B04D8094B1B7801331B
:100FE000DBB200E00123064A1370FFF705FF4FF460
:100FF000FA70FFF76FFCFFF783FFFFF763FE80BD1A
:101000000000002080B500AF134BDB78002B0AD125
:10101000FFF75EFFFFF76AFC4FF47A70FFF75AFCA8
:10102000FFF79AFE17E0FFF761FC0B4B1B78012BD3
:1010300004D9094B1B78013BDBB200E06323064A6D
:101040001370FFF7D9FE4FF4FA70FFF743FCFFF778
:1010500057FFFFF737FE80BD0000002080B500AFCE
:10106000154BDB78002B0AD1FFF732FFFFF73EFC70
:101070004FF47A70FFF72EFCFFF76EFE1AE0FFF7D1
:1010800035FC0D4B5B78132B0CD80B4B5B78013385
:10109000DAB2094B5A70084B9B78002B02D0064BF2
:1010A00000229A70FFF7C8FE4FF4FA70FFF712FCA7
:1010B000FFF726FF80BD00BF0000002080B500AF15
:1010C000154BDB78002B0AD1FFF702FFFFF70EFC70
:1010D0004FF47A70FFF7FEFBFFF73EFE1AE0FFF7D2
:1010E00005FC0D4B5B78002B0CD00B4B5B78013B68
:1010F000DAB2094B5A70084B9B78002B02D0064B92
:1011000000229A70FFF798FE4FF4FA70FFF7E2FBA7
:10111000FFF7F6FE80BD00BF0000002080B500AFE5
:10112000114BDB78002B0AD1FFF7D2FEFFF7DEFB75
:101130004FF47A70FFF7CEFBFFF70EFE13E0FFF7D8
:10114000D5FB094B9B78002B0CBF01230023DBB29E
:101150001A46054B9A70FFF795FE4FF4FA70FFF7A9
:10116000B9FBFFF7CDFE80BD0000002080B584B044
:1011700004AF00F0B9FA00F08FF800F023F900F0A6
:10118000F7F801230393022302934FF48063019342
:101190004FF4007300934FF48073802240213A484B
:1011A000FFF7C6FAFFF734FB00210020FFF73BFBF7
:1011B0003648FFF777FB00210120FFF734FB344866
:1011C000FFF770FB4FF4FA60FFF784FB0020FFF796
:1011D000B5FBFFF7C1FDFFF775FD01212D4800F0BC
:1011E00073FD0346002B05D1FFF7B4FEFA20FFF78D
:1011F00071FB42E04FF48051234800F065FD034647
:10120000002B05D1FFF7D2FEFA20FFF763FB34E095
:101210004FF400511C4800F057FD0346002B05D148
:10122000FFF7F0FEFA20FFF755FB26E002211948F0
:1012300000F04AFD0346002B05D1FFF70FFFFA200F
:10124000FFF748FB19E01021124800F03DFD03466E
:10125000002B05D1FFF732FFFA20FFF73BFB0CE034
:101260004FF48041084800F02FFD0346002B04D1C5
:10127000FFF754FFFA20FFF72DFBFFF723FD0A20AD
:10128000FFF728FBA9E700BF0004024090360008E2
:10129000A43600080000024080B594B000AF07F10A
:1012A0001C0334220021184601F0E4FC07F1080376
:1012B00000221A605A609A60DA601A6100237B602B
:1012C000294B1B6C284A43F080531364264B1B6C3C
:1012D00003F080537B607B6800233B60234B1B68DB
:1012E000224A43F440431360204B1B6803F44043FD
:1012F0003B603B680223FB610123BB621023FB625E
:1013000002237B630023BB631023FB634FF4A873AA
:101310003B6404237B640423BB640223FB6407F166
:101320001C03184600F022FF0346002B01D000F0FA
:10133000C3F80F23BB600223FB6000233B614FF423
:1013400080537B610023BB6107F10803022118462B
:1013500000F0ECFC0346002B01D000F0ADF800BF1C
:101360005037BD4680BD00BF0038024000700040CD
:1013700080B500AF114B124A1A60104B4FF4E132A6
:101380005A600E4B00229A600C4B0022DA600B4B25
:1013900000221A61094B0C225A61084B00229A6103
:1013A000064B0022DA61054801F064F90346002B80
:1013B00001D000F081F800BF80BD00BF9000002088
:1013C0000044004080B58AB000AF07F1140300224A
:1013D0001A605A609A60DA601A6100233B61334BED
:1013E0001B6B324A43F004031363304B1B6B03F057
:1013F00004033B613B690023FB602C4B1B6B2B4AB6
:1014000043F080031363294B1B6B03F08003FB60E5
:10141000FB680023BB60254B1B6B244A43F0010390
:101420001363224B1B6B03F00103BB60BB680023FB
:101430007B601E4B1B6B1D4A43F0020313631B4B67
:101440001B6B03F002037B607B680023BB610123FD
:10145000FB6113237B6107F114031946144800F064
:10146000BFFA4FF4E0437B6107F1140319461148BA
:1014700000F0B6FA0123BB610023FB6100233B624D
:101480004FF620737B6107F114031946084800F0FA
:10149000A7FA40F2FB737B6107F114031946054874
:1014A00000F09EFA00BF2837BD4680BD00380240DC
:1014B000000002400004024080B400AF72B600BFDA
:1014C00000BFFDE780B582B000AF00237B60104B0A
:1014D0005B6C0F4A43F4804353640D4B5B6C03F425
:1014E00080437B607B6800233B60094B1B6C084A90
:1014F00043F080531364064B1B6C03F080533B6036
:101500003B68072000F038FA00BF0837BD4680BDB1
:101510000038024080B58AB000AF786007F114034C
:1015200000221A605A609A60DA601A617B681B6850
:10153000194A93422BD100233B61184B1B6C174A6D
:1015400043F400331364154B1B6C03F400333B610D
:101550003B690023FB60114B1B6B104A43F00103F6
:1015600013630E4B1B6B03F00103FB60FB680C2342
:101570007B610223BB610023FB6103233B620723E2
:101580007B6207F114031946054800F029FA00BFF1
:101590002837BD4680BD00BF0044004000380240EF
:1015A0000000024080B400AF00BFFDE780B400AF90
:1015B00000BFFDE780B400AF00BFFDE780B400AF1F
:1015C00000BFFDE780B400AF00BFFDE780B400AF0F
:1015D00000BFBD465DF8047B704780B400AF00BF1C
:1015E000BD465DF8047B704780B400AF00BFBD46C8
:1015F0005DF8047B704780B500AF00F0C7F800BF0E
:1016000080BD000080B586B000AF7860144A154BED
:10161000D31A7B617B693B61134B1B68002B02D1A2
:10162000114B124A1A60104B1A687B6813443A69CE
:101630009A4207D201F026FB03460C221A604FF0B3
:10164000FF3309E0084B1B68FB60074B1A687B6897
:101650001344054A1360FB6818461837BD4680BD21
:101660000080002000040000D80000202802002094
:1016700080B400AF064BD3F88830054A43F47003BA
:10168000C2F8883000BFBD465DF8047B704700BFDC
:1016900000ED00E0DFF834D0FFF7EAFF0C480D4919
:1016A0000D4A002302E0D458C4500433C4188C42BD
:1016B000F9D30A4A0A4C002301E013600432A24223
:1016C000FBD301F0E5FAFFF751FD704700800020E1
:1016D000000000206000002010370008600000209B
:1016E00028020020FEE7000080B500AF0E4B1B680B
:1016F0000D4A43F4007313600B4B1B680A4A43F412
:1017000080631360084B1B68074A43F480731360BF
:10171000032000F031F9002000F008F8FFF7D2FEB6
:101720000023184680BD00BF003C024080B582B057
:1017300000AF7860124B1A68124B1B7819464FF4B1
:101740007A73B3FBF1F3B2FBF3F3184600F03BF905
:101750000346002B01D001230EE07B680F2B0AD833
:10176000002279684FF0FF3000F011F9064A7B68DB
:101770001360002300E0012318460837BD4680BDF2
:10178000040000200C0000200800002080B400AFFE
:10179000064B1B781A46064B1B681344044A136019
:1017A00000BFBD465DF8047B704700BF0C00002001
:1017B000DC00002080B400AF034B1B681846BD4618
:1017C0005DF8047B704700BFDC00002080B584B06A
:1017D00000AF7860FFF7EEFFB8607B68FB60FB68E6
:1017E000B3F1FF3F05D00A4B1B781A46FB68134440
:1017F000FB6000BFFFF7DEFF0246BB68D31AFA6842
:101800009A42F7D800BF00BF1037BD4680BD00BF69
:101810000C00002080B485B000AF78607B6803F0D6
:101820000703FB600C4BDB68BB60BA684FF6FF0335
:101830001340BB60FB681A02BB68134343F0BF63ED
:1018400043F40033BB60044ABB68D36000BF143765
:10185000BD465DF8047B704700ED00E080B400AF4A
:10186000044BDB681B0A03F007031846BD465DF80E
:10187000047B704700ED00E080B483B000AF034606
:101880003960FB7197F90730002B0ADB3B68DAB24D
:101890000C4997F907301201D2B20B4483F80023A8
:1018A0000AE03B68DAB20849FB7903F00F03043B16
:1018B0001201D2B20B441A7600BF0C37BD465DF858
:1018C000047B704700E100E000ED00E080B489B0E7
:1018D00000AFF860B9607A60FB6803F00703FB6152
:1018E000FB69C3F10703042B28BF0423BB61FB6919
:1018F0000433062B02D9FB69033B00E000237B6124
:101900004FF0FF32BB6902FA03F3DA43BB681A40B7
:101910007B699A404FF0FF317B6901FA03F3D943A9
:101920007B680B40134318462437BD465DF8047BA3
:101930007047000080B582B000AF78607B68013BE3
:10194000B3F1807F01D301230FE00A4A7B68013B9A
:1019500053600F214FF0FF30FFF78EFF054B002241
:101960009A60044B07221A60002318460837BD46C8
:1019700080BD00BF10E000E080B582B000AF7860AD
:101980007868FFF747FF00BF0837BD4680BD80B5C8
:1019900086B000AF0346B9607A60FB7300237B61B9
:1019A000FFF75CFF78617A68B9687869FFF78EFFA6
:1019B000024697F90F3011461846FFF75DFF00BF4A
:1019C0001837BD4680BD80B582B000AF78607868BA
:1019D000FFF7B0FF034618460837BD4680BD00003C
:1019E00080B489B000AF7860396000237B61002348
:1019F0003B610023BB610023FB614DE10122FB69D8
:101A000002FA03F37B613B681B687A6913403B6110
:101A10003A697B699A4240F03C813B685B6803F01D
:101A20000303012B05D03B685B6803F00303022B23
:101A300030D17B689B68BB61FB695B00032202FAC3
:101A400003F3DB43BA691340BB613B68DA68FB69A7
:101A50005B0002FA03F3BA691343BB617B68BA699E
:101A60009A607B685B68BB610122FB6902FA03F341
:101A7000DB43BA691340BB613B685B681B0903F039
:101A80000102FB6902FA03F3BA691343BB617B6885
:101A9000BA695A603B685B6803F00303032B17D0F5
:101AA0007B68DB68BB61FB695B00032202FA03F31E
:101AB000DB43BA691340BB613B689A68FB695B0012
:101AC00002FA03F3BA691343BB617B68BA69DA604F
:101AD0003B685B6803F00303022B23D1FB69DA0840
:101AE0007B68083253F82230BB61FB6903F00703BF
:101AF0009B000F2202FA03F3DB43BA691340BB6178
:101B00003B681A69FB6903F007039B0002FA03F3C1
:101B1000BA691343BB61FB69DA087B680832B969AB
:101B200043F822107B681B68BB61FB695B000322E2
:101B300002FA03F3DB43BA691340BB613B685B689D
:101B400003F00302FB695B0002FA03F3BA69134373
:101B5000BB617B68BA691A603B685B6803F4403319
:101B6000002B00F096800023FB60514B5B6C504AC9
:101B700043F4804353644E4B5B6C03F48043FB603F
:101B8000FB684C4AFB699B08023352F82330BB6167
:101B9000FB6903F003039B000F2202FA03F3DB430C
:101BA000BA691340BB617B68434A93420DD07B689E
:101BB000424A934207D07B68414A934201D10223B3
:101BC00004E0072302E0012300E00023FA6902F0A9
:101BD000030292009340BA691343BB613549FB6924
:101BE0009B080233BA6941F82320364B9B68BB61DE
:101BF0003B69DB43BA691340BB613B685B6803F434
:101C00008013002B03D0BA693B691343BB612D4A93
:101C1000BB6993602B4BDB68BB613B69DB43BA69F3
:101C20001340BB613B685B6803F40013002B03D0D7
:101C3000BA693B691343BB61224ABB69D360214B3C
:101C40005B68BB613B69DB43BA691340BB613B68BE
:101C50005B6803F40033002B03D0BA693B6913437C
:101C6000BB61184ABB695360164B1B68BB613B697B
:101C7000DB43BA691340BB613B685B6803F48033A4
:101C8000002B03D0BA693B691343BB610D4ABB69A2
:101C90001360FB690133FB61FB690F2B7FF6AEAE6E
:101CA00000BF00BF2437BD465DF8047B704700BF0E
:101CB00000380240003801400000024000040240A9
:101CC00000080240003C014080B485B000AF78605D
:101CD0000B467B807B681A697B881340002B02D0FF
:101CE0000123FB7301E00023FB73FB7B18461437D1
:101CF000BD465DF8047B704780B483B000AF786068
:101D00000B467B8013467B707B78002B03D07A8850
:101D10007B689A6103E07B881A047B689A6100BF44
:101D20000C37BD465DF8047B7047000080B584B079
:101D300000AF786039607B68002B01D10123CCE0D3
:101D4000684B1B6803F007033A689A420CD9654B4D
:101D50003A68D2B21A70634B1B6803F007033A6803
:101D60009A4201D00123B8E07B681B6803F00203AC
:101D7000002B20D07B681B6803F00403002B05D0E8
:101D8000594B9B68584A43F4E05393607B681B6847
:101D900003F00803002B05D0534B9B68524A43F4D1
:101DA00060439360504B9B6823F0F0027B689B6814
:101DB0004D4913438B607B681B6803F00103002BC4
:101DC00044D07B685B68012B07D1474B1B6803F449
:101DD0000033002B19D101237FE07B685B68022B65
:101DE00003D07B685B68032B07D13F4B1B6803F074
:101DF0000073002B09D101236FE03B4B1B6803F0FC
:101E00000203002B01D1012367E0374B9B6823F0CD
:101E100003027B685B68344913438B60FFF7CAFC9D
:101E2000F8600AE0FFF7C6FC0246FB68D31A41F2ED
:101E30008832934201D903234FE02B4B9B6803F078
:101E40000C027B685B689B009A42EBD1254B1B68B8
:101E500003F007033A689A420CD2224B3A68D2B296
:101E60001A70204B1B6803F007033A689A4201D0AE
:101E7000012332E07B681B6803F00403002B08D0C9
:101E8000194B9B6823F4E0527B68DB6816491343C7
:101E90008B607B681B6803F00803002B09D0124B92
:101EA0009B6823F460427B681B69DB000E49134387
:101EB0008B6000F021F802460B4B9B681B0903F076
:101EC0000F030A49CB5C22FA03F3094A1360094B5A
:101ED0001B681846FFF72AFC002318461037BD463A
:101EE00080BD00BF003C024000380240B43600080C
:101EF00004000020080000202DE9B04F94B000AF8E
:101F000000237B640023FB6400233B640023BB6449
:101F1000794B9B6803F00C03082B0DD0082B00F2C3
:101F2000E180002B02D0042B03D0DBE0734BBB64B9
:101F3000DBE0734BBB64D8E06F4B5B6803F03F039F
:101F40007B646D4B5B6803F48003002B63D06A4BAA
:101F50005B689B090022BB63FA63BB6BC3F3080396
:101F60003B6300237B63D7E90C4522462B464FF0A9
:101F700000004FF00001590141EAD26150010246D0
:101F80000B462146511A3961294663EB01037B61F7
:101F90004FF000024FF00003D7E904AB59468B0124
:101FA000514643EA916351468A015146B2EB01081A
:101FB000594663EB01094FF000024FF000034FEA6E
:101FC000C90343EA58734FEAC8029046994623462C
:101FD00018EB0303BB602B4649EB0303FB604FF098
:101FE00000024FF00003D7E9024529464B02214683
:101FF00043EAD15321464A02104619467B6C00221F
:10200000BB62FA62D7E90A23FEF752F902460B4691
:102010001346FB6458E0384B5B689B090022184666
:102020001146C0F308033B6200237B62D7E90889AD
:1020300042464B464FF000004FF00001590141EA83
:10204000D261500102460B464146B2EB010A4946B5
:1020500063EB010B4FF000024FF000034FEA8B13CC
:1020600043EA9A634FEA8A12B2EB0A0463EB0B0568
:102070004FF000024FF00003EB0043EA5473E2001C
:1020800014461D464346E3183B604B4645EB0303AD
:102090007B604FF000024FF00003D7E9004529466E
:1020A0008B02214643EA915321468A021046194683
:1020B0007B6C0022BB61FA61D7E90623FEF7F8F8D2
:1020C00002460B461346FB640B4B5B681B0C03F08C
:1020D000030301335B003B64FA6C3B6CB2FBF3F32C
:1020E000BB6402E0054BBB6400BFBB6C18465037B5
:1020F000BD46BDE8B08F00BF003802400024F400A8
:1021000000127A0080B400AF034B1B681846BD462E
:102110005DF8047B704700BF0400002080B500AF6D
:10212000FFF7F0FF0246054B9B689B0A03F007038D
:102130000349CB5C22FA03F3184680BD0038024005
:10214000C436000880B500AFFFF7DCFF0246054B40
:102150009B685B0B03F007030349CB5C22FA03F394
:10216000184680BD00380240C436000880B586B0ED
:1021700000AF78607B68002B01D1012373E27B689C
:102180001B6803F00103002B75D0884B9B6803F09C
:102190000C03042B0CD0854B9B6803F00C03082B1D
:1021A00012D1824B5B6803F48003B3F5800F0BD12F
:1021B0007E4B1B6803F40033002B5BD07B685B68AD
:1021C000002B57D101234EE27B685B68B3F5803F5B
:1021D00006D1764B1B68754A43F4803313601DE0CB
:1021E0007B685B68B3F5A02F0CD1704B1B686F4AFE
:1021F00043F4802313606D4B1B686C4A43F48033B7
:1022000013600BE0694B1B68684A23F4803313604A
:10221000664B1B68654A23F4802313607B685B6808
:10222000002B13D0FFF7C6FA386108E0FFF7C2FAB7
:1022300002463B69D31A642B01D9032313E25B4B9B
:102240001B6803F40033002BF0D014E0FFF7B2FA60
:10225000386108E0FFF7AEFA02463B69D31A642BF7
:1022600001D90323FFE1514B1B6803F40033002B1A
:10227000F0D100E000BF7B681B6803F00203002B75
:1022800063D04A4B9B6803F00C03002B0BD0474BE9
:102290009B6803F00C03082B1CD1444B5B6803F4D0
:1022A0008003002B16D1414B1B6803F00203002B67
:1022B00005D07B68DB68012B01D00123D3E13B4BC8
:1022C0001B6823F0F8027B681B69DB003749134366
:1022D0000B603AE07B68DB68002B20D0344B012296
:1022E0001A60FFF767FA386108E0FFF763FA024601
:1022F0003B69D31A022B01D90323B4E12B4B1B6892
:1023000003F00203002BF0D0284B1B6823F0F802E7
:102310007B681B69DB00254913430B6015E0244BE8
:1023200000221A60FFF746FA386108E0FFF742FA28
:1023300002463B69D31A022B01D9032393E11B4BBD
:102340001B6803F00203002BF0D17B681B6803F0CD
:102350000803002B36D07B685B69002B16D0154B29
:1023600001221A60FFF726FA386108E0FFF722FA27
:1023700002463B69D31A022B01D9032373E10B4BAD
:102380005B6F03F00203002BF0D01BE0094B00222F
:102390001A60FFF70FFA38610EE0FFF70BFA0246FA
:1023A0003B69D31A022B07D903235CE100380240B2
:1023B00000004742800E47428A4B5B6F03F00203E6
:1023C000002BEAD17B681B6803F00403002B00F0AC
:1023D00097800023FB75834B1B6C03F08053002B0D
:1023E0000FD10023BB607F4B1B6C7E4A43F08053B0
:1023F00013647C4B1B6C03F08053BB60BB680123F0
:10240000FB75794B1B6803F48073002B18D1764B56
:102410001B68754A43F480731360FFF7CBF938618A
:1024200008E0FFF7C7F902463B69D31A022B01D92E
:10243000032318E16C4B1B6803F48073002BF0D06E
:102440007B689B68012B06D1664B1B6F654A43F086
:10245000010313671CE07B689B68052B0CD1614B63
:102460001B6F604A43F0040313675E4B1B6F5D4AAA
:1024700043F0010313670BE05A4B1B6F594A23F0DB
:1024800001031367574B1B6F564A23F0040313676E
:102490007B689B68002B15D0FFF78CF938610AE048
:1024A000FFF788F902463B69D31A41F2883293421A
:1024B00001D90323D7E04B4B1B6F03F00203002B22
:1024C000EED014E0FFF776F938610AE0FFF772F911
:1024D00002463B69D31A41F28832934201D9032361
:1024E000C1E0404B1B6F03F00203002BEED1FB7DDC
:1024F000012B05D13B4B1B6C3A4A23F080531364EC
:102500007B689B69002B00F0AD80364B9B6803F025
:102510000C03082B60D07B689B69022B45D1334BA1
:1025200000221A60FFF746F9386108E0FFF742F928
:1025300002463B69D31A022B01D9032393E0294BAE
:102540001B6803F00073002BF0D17B68DA697B68AD
:102550001B6A1A437B685B6A9B011A437B689B6A10
:102560005B08013B1B041A437B68DB6A1B061A43AA
:102570007B681B6B1B071B4913434B601B4B0122E2
:102580001A60FFF717F9386108E0FFF713F9024600
:102590003B69D31A022B01D9032364E0114B1B685A
:1025A00003F00073002BF0D05CE0104B00221A60A7
:1025B000FFF700F9386108E0FFF7FCF802463B69D5
:1025C000D31A022B01D903234DE0064B1B6803F0FD
:1025D0000073002BF0D145E07B689B69012B07D18C
:1025E000012340E000380240007000406000474294
:1025F0001F4B5B68FB607B689B69012B30D0FB68DD
:1026000003F480027B68DB699A4229D1FB6803F0FE
:102610003F027B681B6A9A4222D1FA6847F6C07370
:1026200013407A68526A9201934219D1FB6803F40D
:1026300040327B689B6A5B08013B1B049A420FD1C6
:10264000FB6803F070627B68DB6A1B069A4207D165
:10265000FB6803F0E0427B681B6B1B079A4201D0CA
:10266000012300E0002318461837BD4680BD00BF97
:102670000038024080B582B000AF78607B68002BE4
:1026800001D1012342E07B6893F84130DBB2002B9B
:1026900006D17B68002283F840207868FEF73AFF75
:1026A0007B68242283F841207B681B68DA687B689A
:1026B0001B6822F40052DA60786800F02BF87B681F
:1026C0001B681A697B681B6822F490421A617B6858
:1026D0001B685A697B681B6822F02A025A617B6872
:1026E0001B68DA687B681B6842F40052DA607B681A
:1026F00000225A647B68202283F841207B682022D4
:1027000083F842207B6800225A630023184608376A
:10271000BD4680BD2DE9B04FC0B000AFC7F8F40092
:10272000D7F8F4301B681B6923F44050D7F8F43015
:10273000D968D7F8F4301A6840EA01031361D7F872
:10274000F4309A68D7F8F4301B691A43D7F8F4309C
:102750005B691A43D7F8F430DB691343C7F8F830E4
:10276000D7F8F4301B68DB6823F4164121F00C0124
:10277000D7F8F4301A68D7F8F8300B43D360D7F89D
:10278000F4301B685B6923F44070D7F8F430996922
:10279000D7F8F4301A6840EA01035361D7F8F430EF
:1027A0001A688F4B9A4205D0D7F8F4301A688D4BCF
:1027B0009A4204D1FFF7C6FCC7F8FC0003E0FFF71C
:1027C000ADFCC7F8FC00D7F8F430DB69B3F5004F77
:1027D00040F00C81D7F8FC300022C7F8E830C7F889
:1027E000EC20D7E93A4522462B469118B9655B4162
:1027F000FB65D7E91623214612EB0108294643EB76
:1028000001094FF000024FF000034FEAC90343EA09
:1028100058734FEAC80290469946234618EB0303C3
:10282000C7F8E0302B4649EB0303C7F8E430D7F88C
:10283000F4305B680022C7F8D830C7F8DC20D7E94D
:1028400036120B46DB183B65134642EB03037B65F0
:10285000D7E91423D7E93801FDF72AFD02460B46D4
:10286000614BA3FB02235B091C01D7F8FC3000225B
:10287000C7F8D030C7F8D420D7E9348942464B4650
:102880009118B9645B41FB64D7E91223414612EB0E
:10289000010A494643EB010B4FF000024FF00003E1
:1028A0004FEACB0343EA5A734FEACA0292469B4669
:1028B00043461AEB0303C7F8C8304B464BEB030300
:1028C000C7F8CC30D7F8F4305B680022C7F8C030C6
:1028D000C7F8C420D7E930120B46DB183B64134617
:1028E00042EB03037B64D7E91023D7E93201FDF7FC
:1028F000DFFC02460B4611463B4BA3FB01235B0961
:10290000642202FB03F3CB1ADB0003F13202364BE5
:10291000A3FB02235B095B0003F4F8731C44D7F8A4
:10292000FC300022C7F8B830C7F8BC20D7E92E89A0
:1029300042464B469118B9635B41FB63D7E90E23CE
:1029400041465118396349464B417B634FF00002C1
:102950004FF00003D7E90CAB5946CB00514643EA90
:1029600051735146CA0010461946034642469B1809
:10297000C7F8B0304B460A4642EB0303C7F8B43001
:10298000D7F8F4305B680022C7F8A830C7F8AC204D
:10299000D7E92A120B46DB18BB62134642EB03034E
:1029A000FB62D7E90A23D7E92C01FDF781FC024637
:1029B0000B460D4BA3FB02135B09642101FB03F3E0
:1029C000D31ADB003233084AA2FB03235B0903F06E
:1029D0000702D7F8F4301B6822449A6006E100BF72
:1029E00000100140001401401F85EB51D7F8FC3066
:1029F0000022C7F8A030C7F8A420D7E928894246AA
:102A00004B46911839625B417B62D7E90823414606
:102A10005418494643EB01054FF000024FF0000304
:102A2000EB0043EA5473E20014461D464346E318A4
:102A3000C7F898304B4645EB0303C7F89C30D7F8EE
:102A4000F4305B680022C7F89030C7F894204FF04C
:102A500000024FF00003D7E9244529468B002146A8
:102A600043EA917321468A00D7E92601FDF720FC4D
:102A700002460B46604BA3FB02235B091C01D7F8FF
:102A8000FC300022C7F88830C7F88C20D7E92289AB
:102A900042464B469118B9615B41FB61D7E9062379
:102AA00041465118396149464B417B614FF0000264
:102AB0004FF00003D7E904AB5946CB00514643EA37
:102AC00051735146CA0010461946034642469B18A8
:102AD000C7F880304B460A4642EB0303C7F8843000
:102AE000D7F8F4305B680022BB67FA674FF000024A
:102AF0004FF00003D7E91E8949468B00414643EA5F
:102B0000917341468A00D7E92001FDF7D1FB0246C7
:102B10000B461146384BA3FB01235B09642202FBE1
:102B200003F3CB1A1B013233334AA2FB03235B09A5
:102B300003F0F0031C44D7F8FC3000223B677A67AF
:102B4000D7E91C8942464B469118B9605B41FB604E
:102B5000D7E9022341465118396049464B417B6011
:102B60004FF000024FF00003D7E900AB5946CB000D
:102B7000514643EA51735146CA001046194603466E
:102B800042469B18BB664B460A4642EB0303FB6674
:102B9000D7F8F4305B6800223B667A664FF000029B
:102BA0004FF00003D7E9188949468B00414643EAB4
:102BB000917341468A00D7E91A01FDF779FB024675
:102BC0000B460D4BA3FB02135B09642101FB03F3CE
:102BD000D31A1B013233084AA2FB03235B0903F01B
:102BE0000F02D7F8F4301B6822449A6000BF07F543
:102BF0008077BD46BDE8B08F1F85EB5130B51446D8
:102C0000002C9BB005461A4605DA8B2303604FF073
:102C1000FF301BB030BD4FF40273ADF80C304FF0F5
:102C20000003199314BF04F1FF3323460293059365
:102C30004FF6FF7300910491ADF80E3069461E9B6C
:102C400000F0A4F9431CBCBF8B232B60002CE0D008
:102C5000009B00221A70DCE707B5009313460A4672
:102C6000014603480068FFF7C9FF03B000BD00BF7D
:102C70001000002002440346934200D1704703F83D
:102C8000011BF9E7014B1868704700BF10000020D6
:102C900070B50D4B0D4D5B1B9C100026A64209D153
:102CA00000F06EFC0A4D0B4B5B1B9C100026A642ED
:102CB00005D170BD55F8043B98470136EEE755F84D
:102CC000043B98470136F2E7083700080837000848
:102CD000083700080C3700087047704738B50546BC
:102CE000002941D051F8043C0C1F002BB8BFE41858
:102CF00000F0E0F81D4A136833B963601460284699
:102D0000BDE8384000F0DCB8A34208D9206821189B
:102D10008B4201BF19685B6809182160EDE71A460C
:102D20005B680BB1A342FAD911685018A0420BD1CD
:102D300020680144501883421160E0D118685B6834
:102D4000536008441060DAE702D90C232B60D6E701
:102D5000206821188B4204BF19685B68636004BF58
:102D6000091821605460CAE738BD00BF2402002062
:102D700070B50F4E0C463168054611B900F0ACFB3A
:102D800030602146284600F0A7FB431C03D14FF0DA
:102D9000FF34204670BDC41C24F00304A042F8D0C8
:102DA000211A284600F098FB0130F2D1EFE700BF6E
:102DB000200200202DE9F843CD1C25F0030508353D
:102DC0000C2D38BF0C25002D064601DBA94204D985
:102DD0000C2333600020BDE8F883DFF8D48000F0D6
:102DE00069F8D8F800301C4644BB29463046FFF746
:102DF000BFFF431C044658D1D8F800402746002F97
:102E000043D1002C4BD023683946304604EB0309EC
:102E100000F062FB814542D121686D1A2946304697
:102E2000FFF7A6FF01303AD023682B442360D8F87F
:102E300000305A6862BBC8F800700FE02268521B6D
:102E400020D40B2A17D96119A342256018BF5960F5
:102E5000636808BFC8F8001062514B60304600F04C
:102E60002FF804F10B00231D20F00700C21A1CBF2D
:102E70001B1AA350AFE76268A3420CBFC8F800203A
:102E80005A60EBE723466468AEE73C467F68B6E7E6
:102E90001A465B68A342FBD100235360DEE70C2394
:102EA0003360304600F00CF894E70560D6E700BFC9
:102EB000240200200148FFF70FBF00BF1C020020C2
:102EC0000148FFF70ABF00BF1C0200202DE9F047B0
:102ED0008E681F46BE4282460C469046334653D803
:102EE000B1F90C0010F4906F2BD065692368096963
:102EF00005EB4505A3EB010905EBD5757B1C6D10B2
:102F00004B44AB422A4684BF1D462A46430527D57B
:102F100011465046FFF74EFF064658B321694A4610
:102F200000F0EAFAA38923F4906343F08003A381BD
:102F3000266165614E44A5EB09052660A5603E4605
:102F40003B461F4620683A46414600F0ABFAA3686C
:102F50009B1BA36023683B4423600020BDE8F087EF
:102F6000504600F0D7FA06460028E1D121695046C4
:102F7000FFF7B4FE0C23CAF80030A38943F04003E6
:102F8000A3814FF0FF30E9E73E46DBE72DE9F0474C
:102F90001F468B891B069CB006460D46144610D56D
:102FA0000B6973B94021FFF705FF2860286130B92C
:102FB0000C2333604FF0FF301CB0BDE8F087402396
:102FC0006B610023099320238DF829300397302368
:102FD000654F8DF82A304FF001082346994613F8C3
:102FE000012B0AB1252AF9D1B9EB040A0BD05346BB
:102FF000224629463046FFF769FF013000F0A480E1
:10300000099A5244099299F80030002B00F09C80F4
:1030100000234FF0FF32CDE9052309F101090493A4
:1030200007938DF853301A934C464F4814F8011B00
:103030000522FDF7EDF8049BD0B9D80644BF202245
:103040008DF85320190744BF2B228DF8532099F88F
:1030500000202A2A13D0079A4C4600204FF00A0C71
:10306000214611F8013B303B092B49D968B913E0DF
:10307000C01B08FA00F018430490A146D4E7039A55
:10308000111D12680391002A01DB079204E05242ED
:1030900043F002030792049323782E2B0AD163781E
:1030A0002A2B32D1039B1A1D1B68039243EAE37358
:1030B00002340593DFF8C090217803224846FDF7DB
:1030C000A7F838B1049BA0EB0900402282401343CB
:1030D0000134049314F8011B24488DF828100622AB
:1030E000FDF796F8002835D0214818BB039B07331D
:1030F00023F0070308330393099B034409936CE708
:103100000CFB02320C460120AAE700230134059390
:1031100019464FF00A0C204610F8012B303A092AC4
:1031200003D9002BC6D00591C4E70CFB012104464E
:103130000123F0E703AB00932A460E4B04A9304667
:10314000AFF30080421CD7D1AB895B063FF532AFAD
:10315000099831E703AB00932A46064B04A9304691
:1031600000F07AF8EEE700BFCC360008D63600084B
:1031700000000000CD2E0008D23600082DE9F047EF
:10318000164698468A680B69DDF820909342B8BFCE
:103190001346336091F8432007460C460AB10133C9
:1031A00033602368990642BF336802333360256871
:1031B00015F0060506D104F1190AE36832689B1A76
:1031C000AB4226DC94F843302268003B18BF012351
:1031D00092062BD404F1430241463846C8470130D9
:1031E0001ED02368226903F00603042B02BFE568A2
:1031F0003368ED1AA3680CBF25EAE57500259342F4
:10320000C4BF9B1AED1800261A34B5421AD100200B
:1032100008E00123524641463846C847013003D1F1
:103220004FF0FF30BDE8F0870135C6E7E1185A1CC2
:10323000302081F84300224494F8451082F843106E
:103240000233C7E70123224641463846C8470130CA
:10325000E6D00136D9E700002DE9F0430D7E85B0B8
:10326000782D90460C9E07460C46994601F1430284
:1032700007D8622D0AD8002D00F0D780582D00F015
:10328000BC8004F1420684F842503BE0A5F16303A0
:10329000152BF6D801A151F823F000BFF532000834
:1032A00009330008833200088332000883320008A3
:1032B0008332000809330008833200088332000893
:1032C00083320008833200081134000833330008C9
:1032D000C333000883320008833200083334000807
:1032E0008332000833330008833200088332000839
:1032F000CB33000833681A1D1B68326004F14206A4
:1033000084F842300123A1E033682068191D316040
:10331000060601D51D6803E04506FBD5B3F900504C
:10332000002D03DA2D236D4284F843305B480A23D5
:1033300011E021683368080653F8045B02D449069B
:1033400048BFADB23360237E54486F2B5CD1082355
:10335000002184F843106668A660002E05DB216812
:103360002E4321F00401216050D01646B5FBF3F145
:1033700003FB115C10F80CC006F801CDAC466345A8
:103380000D46F3D9082B0BD12368DB0708D5236939
:1033900061689942DEBF302306F8013C06F1FF3632
:1033A000921B2261CDF80090434603AA214638467D
:1033B000FFF7E4FE01304ED14FF0FF3005B0BDE81D
:1033C000F083236843F0200323603548782584F890
:1033D00045502368316813F0800F51F8045B03D126
:1033E00013F0400F18BFADB23160D90744BF43F0AE
:1033F000200323601DB11023AAE72848E7E72368CC
:1034000023F020032360F6E70A23A1E71646B9E775
:10341000336825686169181D30602E061B6801D568
:10342000196002E06806FBD5198000232361164667
:10343000B8E733681A1D32601E68626800213046A2
:10344000FCF7E6FE08B1801B60606368236100231F
:1034500084F84330A6E72369324641463846C847D8
:103460000130A9D023689B0713D4E068039B9842DE
:10347000B8BF1846A2E70123324641463846C8473E
:10348000013099D00135E36803995B1AAB42F2DC55
:10349000EBE7002504F11906F5E700BFDD3600086B
:1034A000EE360008884210B501EB020402D98442CE
:1034B000234607D8431EA14207D011F8012B03F879
:1034C000012FF8E70244824200D110BD13F8011D1C
:1034D00002F8011DF7E7000038B5064D0023044649
:1034E00008462B60FEF78EF8431C02D12B6803B10F
:1034F000236038BD180200200A44914200F1FF33D6
:1035000000D1704710B511F8014B03F8014F9142FB
:10351000F9D110BD2DE9F041074614460D4621B9F9
:10352000BDE8F0411146FFF745BC2AB9FFF7D6FBCD
:1035300025462846BDE8F08100F01AF88442064688
:1035400002D8B4EB500FF4D821463846FFF732FCCE
:10355000804608B94546ECE7B4422246294628BFD2
:103560003246FFF7C9FF29463846FFF7B7FBF1E7B8
:1035700051F8043C181F002BBCBF0B58C0187047F3
:10358000F8B500BFF8BC08BC9E467047F8B500BF50
:08359000F8BC08BC9E46704720
:103598005456206973204F464600000050726573E8
:1035A8007320504F574552204F4E0000545620501C
:1035B8004F574552204F4E0043483A253032642039
:1035C800564F4C3A253032640000000054562050C3
:1035D8004F574552204F464600000000476F6F6422
:1035E80062796521000000004368616E6E656C3A7F
:1035F8002025303264000000566F6C3A2530326462
:1036080000000000566F6C756D653A2025303264F5
:10361800000000004D555445204F4E004D5554456F
:10362800204F4646000000004D5554452041435464
:1036380049564154454400004D55544520444541A0
:103648004354495641544544000000004552524FE6
:10365800522100005455524E204F4E2054562046B9
:1036680049525354000000004D555445204F4E20F8
:1036780020202020202000004D555445204F46464C
:10368800202020202020000054562052656D6F74A1
:10369800652053797374656D00000000496E697484
:1036A80069616C697A696E672E2E2E000000000031
:1036B80000000000010203040607080900000000DA
:1036C80001020304232D302B2000686C4C00656632
:1036D800674546470030313233343536373839415B
:1036E8004243444546003031323334353637383971
:0836F800616263646566000075
:0837000010CBFF7F0100000067
:04370800F5010008BF
:04370C00D1010008DF
:10371000010A00000024F400100000000100000075
:103720001400002000000000E000002048010020FC
:10373000B0010020000000000000000000000000B8
:103740000000000000000000000000000000000079
:103750000000000000000000000000000000000069
:103760000000000000000000000000000000000059
:040000050800169544
:00000001FF
